:020000040000FA
:0400000081314029E1
:0400080081314429D5
:06028000000081316A2933
:100288007E1481310B1F49294A2968294E01971D7F
:100298004E294F2959298D1D5229532959297B083F
:1002A8008A007A080A0081316829171E5C295D29AD
:1002B80068290D1E602961296829400149088A00BA
:1002C80048080A00813168297E10090040018131FF
:1002D8006D291E308400833085003530860000305B
:1002E80087000D30833140238131F001F101F201A3
:1002F800F301F401F501A03084000030850040309E
:10030800833146238131203084000130850040301C
:10031800833146238131A03084000130850040308C
:100328008331462381317E10400181319B298331FD
:100338002B2381310B178B1735308600003087004F
:1003480021308400003085000D304001A0001600E7
:100358001A00A00BAB294001B301B401C02933082E
:10036800213E86008701010882317E2281310130D9
:100378004001B3070030B43D3308213E86008701B1
:100388000108031DC829C929B3290030B20000306B
:10039800B1000030B0000030AF0083313823813124
:1003A800003A0319D829D929ED298231A7228131A8
:1003B8004001A0002008AE004A302E06031DE529A2
:1003C800E629ED298B130F307F01ED0083314C2393
:1003D800813101304001AF070030B03D0030B13D00
:1003E8000030B23D3208031D042A3108031D042AD7
:1003F80020302F024E30303B031C032A042AD12917
:10040800AF2981316A294E0117124530F7000230B1
:10041800F8008331582382314E019711CF30F7000D
:100428000230F800833170238231083042019F0086
:1004380090309D0024309E0044309B009C01803009
:10044800F7000330F8008331642382317530F700F8
:100458000330F80083315E2382317930F7000330AE
:10046800F80083316A238231F001F501F40140304C
:10047800F9007908FC00F301F201F1014E011716A9
:1004880008007308A03E86008701810142011D1DF6
:100498004E2A4F2A5A2A7308A03E860087018114E3
:1004A800400147088A0046080A00823142019D1C23
:1004B8005E2A5F2A6A2A7308A03E86008701011512
:1004C800400145088A0044080A0082317308A03EAA
:1004D8008600870101080319722A732A7A2A4001C3
:1004E80043088A0042080A0082317D2A8231F022BC
:1004F80082310800F8007C080319832A842A7F2A9D
:100508004E019719882A892A8D2A780842019A006B
:10051800A42A97117808F7007508203E8600013054
:100528008700770881000130F7007708F507403029
:100538007502031CA02AA12AA22AF5010130FC0297
:100548004E019715080071080319AB2AAC2AA72A8F
:100558007208A03E860087010108F7007708F000BE
:100568007208A03E8600013087000108F70077086E
:10057800F8000130F7007708F20740307202031CD8
:10058800C62AC72AC82AF2014E0117120130F10201
:1005980017167808080040307C020318D42AD52A98
:1005A800ED2A7408203E86000130870001084201C8
:1005B8009A000130F6007608F40740307402031CF4
:1005C800E62AE72AE82AF4010130F6007608FC0753
:1005D800EF2A4E019711080042011908F600730826
:1005E800A03E860001308700760881000130F600C1
:1005F8007608F30740307302031C032B042B052BEA
:10060800F3010130F6007608F1070800400198016F
:100618003B30920027307E01B800B901BA0137306B
:10062800BB003F30BC0004307D01CB0005307E01AB
:1006380092000800483465346C346C346F342034CC
:1006480057346F3472346C34643421340034833159
:100658000A23833183315223833183317D238331CC
:1006680082310722833108007108031D3C2B3E2B81
:1006780001303F2B00300800FE0012001E00FE0B68
:10068800412B0034640080010131890B472B003471
:100698008030F70077085001930508005101910157
:1006A800053093009201080078084001C9007708D6
:1006B800C800080078084001C5007708C400080091
:1006C80078084001C7007708C6000800780840018C
:1006D800C3007708C20008007808FB007708FA0012
:1006E800080042011D121D1608008231F0228331D4
:0A06F800080050018C010800080002
:021FFE00B71416
:020000040001F9
:04000E00ED3FE337A8
:04001400FF1FFF3F8C
:00000001FF
