:020000040000FA
:04000000803106281D
:100008008131442980310828F001F101F201F3011E
:1000180040010E28C03041019A00400198013B3050
:10002800920007307E01B8003730BB003F30BC007B
:1000380004307D01CB0005307E019200043051016F
:100048009300813052018C00703041019E0079305C
:100058009D00083042019F0090309D0024309E0092
:1000680022309B0045208031F800780803193D288C
:1000780081201F307F01ED008801813140298031C6
:100088000628FF3050019A000F309B009E011E1475
:100098009E01B7301C06031D4C3414301D06031D89
:1000A800483440309A0001309B009E011E149E0186
:1000B8001C0F62283F301D0603194634931B533426
:1000C80041019D149D18662878301C02031C0034D9
:1000D800F33044018D000430910001308E004E0150
:1000E8008D1E732844018E0141019D149D187A28A4
:1000F80078301C02031856340034453042019A0007
:100108004230122180314F30122180314F3012217C
:1001180080315430122180317808122180313E30EC
:10012800122180313E3012218031F30152307006A5
:100138000319A8287108F0007208F1007308F2008A
:100148001A218031F3009A28A3307106031D9E28D6
:100158004D307206031D9E28F6307306031D9E2837
:1001680065309A00403050019A0001309B00F6013A
:10017800F70194309E0020218031203050019A07E9
:100188001A0803199B0A2030F6070318F70A1030DB
:100198007702003003197602031CBD28573042014C
:1001A8009A00A43050019E00282180311B1AFB2898
:1001B8001A21803150019C001A21803150019D0084
:1001C8001F301A05F5001F3A031DF4289E1220213E
:1001D8008031A43050019E00573012218031F6281A
:1001E8002021803150019A0A03199B0ADA285230DB
:1001F8001221803150019E01282180311B1A1129BA
:100208001E141C081221803150011D081221803152
:1002180050019A0A03199B0A02291129F4004E0178
:100228008D1D1329740842019A0008004E010D1E05
:100238001A2942011908080055309F00AA309F006A
:100248009E1400000000080001309B0040309A0016
:0202580008009C
:020000040001F9
:04000E00ED3FE337A8
:04001400FF1FFF3F8C
:00000001FF
